S00E000054466D696E692E73726563CF
S11300000C942A000C9447000C94F6020C944700BC
S11300100C9447000C94A4020C9447000C944700E1
S11300200C9447000C9447000C9447000C94470030
S11300300C9447000C9447000C940B040C94470058
S11300400C9447000C9447000C9447000C94470010
S11300500C94470011241FBECFE5D8E0DEBFCDBF0E
S113006010E0A0E6B0E0E8E5F9E002C005900D92EA
S1130070AE38B107D9F720E0AEE8B0E001C01D9278
S1130080A13AB207E1F70E9461030C94AA040C940C
S11300900000009741F0E7EBFBE03197F1F700C077
S11300A000000197C1F708959DEC899F912D1124BB
S11300B0292F269526952695220F322F330F330F9D
S11300C0230F821B282F892F86958695869581304C
S11300D089F028F08230C9F0833011F108953BB3E0
S11300E081E090E002C0880F991F2A95E2F7832BE4
S11300F08BBB089538B381E090E002C0880F991F4C
S11301002A95E2F7832B88BB089535B381E090E00C
S113011002C0880F991F2A95E2F7832B85BB0895A7
S113012032B381E090E002C0880F991F2A95E2F76C
S1130130832B82BB08959DEC899F912D1124292F37
S1130140269526952695220F322F330F330F230F32
S1130150821B282F892F869586958695813091F06C
S113016028F08230D9F0833029F108953BB381E03F
S113017090E002C0880F991F2A95E2F780958323A7
S11301808BBB089538B381E090E002C0880F991FBB
S11301902A95E2F78095832388BB089535B381E0DF
S11301A090E002C0880F991F2A95E2F78095832377
S11301B085BB089532B381E090E002C0880F991F97
S11301C02A95E2F78095832382BB0895809193005A
S11301D00E94540081E090E00E94490080919300C5
S11301E00E949B0081E090E00E9449000895CF9313
S11301F0DF93D82F809192000E949B00CD2FC2954F
S1130200CF70C0FF05C0809191000E94540004C0CB
S1130210809191000E949B00C1FF05C080919000D5
S11302200E94540004C0809190000E949B00C2FF71
S113023005C080918F000E94540004C080918F00FB
S11302400E949B00C87029F080918E000E94540087
S113025004C080918E000E949B000E94E600D0FFA3
S113026005C0809191000E94540004C080919100C7
S11302700E949B00D1FF05C0809190000E94540011
S113028004C0809190000E949B00D2FF05C0809121
S11302908F000E94540004C080918F000E949B0034
S11302A0D3FF05C080918E000E94540004C0809149
S11302B08E000E949B000E94E600DF91CF9108957A
S11302C0CF93DF93D82F809192000E945400CD2FBA
S11302D0C295CF70C0FF05C0809191000E94540068
S11302E004C0809191000E949B00C1FF05C08091D1
S11302F090000E94540004C0809190000E949B00D2
S1130300C2FF05C080918F000E94540004C08091F8
S11303108F000E949B00C87029F080918E000E947B
S1130320540004C080918E000E949B000E94E6004D
S1130330D0FF05C0809191000E94540004C08091B8
S113034091000E949B00D1FF05C0809190000E9403
S1130350540004C0809190000E949B00D2FF05C00D
S113036080918F000E94540004C080918F000E94ED
S11303709B00D3FF05C080918E000E94540004C0EE
S113038080918E000E949B000E94E600DF91CF9135
S11303900895CF93DF93EC018881882331F021966F
S11303A00E94600189918111FBCFDF91CF91089563
S11303B08F929F92AF92BF92CF92DF92EF92FF9271
S11303C00F931F93CF93DF93CDB7DEB72B970FB661
S11303D0F894DEBF0FBECDBF9C01009741F480E3CB
S11303E00E9460018E011982812C912C4BC09923AB
S11303F06CF48DE289833195219531095E0142E0E7
S1130400A40EB11C88248394912C05C0CE010196BE
S11304105C01812C912C121613060CF046C0C90104
S1130420E0E0F0E00AE010E06F017F014FEFE41A32
S1130430F40AF701B8010E948204CB0118161906C8
S11304409CF385010C0D1D1DD501AE0DBF1D1C9225
S11304501E161F06BCF4F80131965801AC18BD08ED
S11304600F2EFAE0CF2ED12CF02DC901B6010E9437
S11304708204805D8293262F372FAE16BF06A9F71C
S11304800E191F098A94892811F401501109F801E1
S11304908181882381F00E5F1F4F0E946001F80163
S11304A081918F018111F9CF06C085010150110995
S11304B0F5011082E7CF2B960FB6F894DEBF0FBE7E
S11304C0CDBFDF91CF911F910F91FF90EF90DF90FF
S11304D0CF90BF90AF909F908F900895EF920F931D
S11304E08093920060939300409391002093900036
S11304F000938F00E0928E00862F0E94540080911A
S113050092000E949B0083E30E94F70082E30E9412
S1130510F70088E20E94F7008CE00E94F70086E072
S11305200E94F70081E00E94F70080E091E00E94C1
S113053049000F91EF90089585B5816085BD89B715
S1130540806489BF14BC08951F920F920FB60F9256
S113055011242F933F934F935F936F937F938F93C4
S11305609F93AF93BF93EF93FF93F894809196007A
S113057090919700019690939700809396008E3CFB
S113058099406CF0839B02C0829B0BC0829B02C08B
S1130590839B10C0109297001092960014BC78941C
S11305A014C080E00E94060490E09093950080932C
S11305B09400ECCF80E00E94060490E081509F4FAD
S11305C09093950080939400E5CFFF91EF91BF91B4
S11305D0AF919F918F917F916F915F914F913F91D7
S11305E02F910F900FBE0F901F9018951F920F928E
S11305F00FB60F921124F89478940F900FBE0F90B9
S11306001F90189581309105C1F484E20E949B00EB
S113061082E20E949B0083E290E00E94490081E014
S11306200E94F70080E690E00E94C9018091940046
S1130630909195000E94D801089582309105A1F40B
S113064084E20E94540082E20E949B0081E00E94A6
S1130650F70084E690E00E94C90180919400909193
S113066095000E94D801089583309105A1F481E09A
S11306700E94F70084E20E949B0082E20E945400E0
S113068088E690E00E94C9018091940090919500C1
S11306900E94D8010895049799F481E00E94F7001C
S11306A084E20E94540082E20E9454008CE690E0AE
S11306B00E94C90180919400909195000E94D801F4
S11306C008958FEF8ABB0F2EF6E0EF2EF02D04E095
S11306D022E043E065E087E00E946E0280E790E05C
S11306E00E94C90180EC0E94F70086E790E00E9416
S11306F0C90184EF91E00E94490014BA80E581BBEE
S11307008CE582BBE12C00E023E041E067E670E089
S113071080E00E94C10387E689B910BC84E690E0BA
S11307200E9449000E949C02789481E00E94F70094
S113073086E890E00E94C90188EE93E00E94490097
S1130740C4EFD1E081E090E00E9402032197D1F749
S1130750C4EFD1E082E090E00E9402032197D1F738
S1130760C4EFD1E083E090E00E9402032197D1F727
S1130770C4EFD1E084E090E00E9402032197D1F716
S1130780D4CFEF920F9370BD69B980B58F7B80BDD4
S11307905298411102C0539A09C0413011F4549A3D
S11307A005C0423019F48AB188618AB980B58F7C5A
S11307B080BD82E0E81204C080B5806380BD06C0BD
S11307C081E0E81203C080B5806280BD013021F46D
S11307D080B5886080BD03C080B5877F80BD80B54B
S11307E0866080BD213041F018F0223049F00BC002
S11307F080B5897F80BD07C080B58B7F80BD03C075
S113080080B58D7F80BD0F91EF9008951CB85F9BDC
S1130810FECF8CB108951F920F920FB60F92112440
S11308202F933F934F935F936F937F938F939F93F4
S1130830EF93FF93E9E9F0E02081809198004181F2
S11308406281E38190E0F0E073E052E031E005C0C2
S11308509F5F832F943008F044C081110DC0213074
S1130860B9F781E0809398005D993DC080919D0027
S11308708CB91092990037C0813081F4413019F05D
S11308809F5F852FE7CF82E0809398005D992BC00E
S113089080919E008CB910929A0025C0823081F418
S11308A0613019F09F5F872FD5CF83E08093980044
S11308B05D9919C080919F008CB910929B0013C060
S11308C0833041F6E13019F09F5F8F2FC3CF109230
S11308D098005D9908C08091A0008CB910929C008A
S11308E002C080939800FF91EF919F918F917F9127
S11308F06F915F914F913F912F910F900FBE0F9089
S11309001F90189597FB072E16F4009407D077FDD7
S113091009D00E94960407FC05D03EF49095819579
S11309209F4F0895709561957F4F0895AA1BBB1B37
S113093051E107C0AA1FBB1FA617B70710F0A61BDB
S1130940B70B881F991F5A95A9F780959095BC01FC
S10B0950CD010895F894FFCFD6
S11309586C313D006C323D006C333D006C343D001D
S1130968504F494E54005445414D20494E44494145
S1110978203230313900696E6C6F6F700000F0
S9030000FC
